:03000000020A7978
:0C0A7900787FE4F6D8FD75812902045C4A
:1008AA003C003E0030300054483A00544C3A005460
:1008BA004800544C004F564821004F5643210047E8
:0408CA004F4F440048
:10045C00E4FF1208218F1B7F011208218F1512094E
:10046C00D9120A32120A467F207E031209F07BFF52
:10047C007A0879AA7D097F011208F27BFF7A087944
:10048C00AC7D0C7F011208F27BFF7A0879AE7D0AF5
:10049C007F011208F27BFF7A0879B17D017F02128D
:1004AC0008F27BFF7A0879B57D097F021208F2E524
:1004BC001BFB3395E0FA750C037D047F0212070ACF
:1004CC00E515FB3395E0FA750C037D0C7F021207E2
:1004DC000A120AB88F1A1208518F198E188D178CA0
:1004EC0016120A46E4FFFEFDFCAB19AA18A917A8C0
:1004FC00161201B450047B2D80027B2B7D017F01F1
:10050C00120AA5AF19AE18AD17AC1612026BAB07D9
:10051C00AA06750C037D027F0112096F7B2E7D05E7
:10052C007F01120AA5E4FFFE7DC87C42AB19AA1814
:10053C00A917A81612000E12026BE47B64FAF9F8E4
:10054C001203BC750C027D067F0112096FE51A704F
:10055C0003020662B40102051CE51CC394034003AC
:10056C00E4F51CE51C64017035E51AB4020E051B9C
:10057C00C3E51B648094FD4003751B7DE51AB40331
:10058C001D151BD3E5156480F8E51B64809850029B
:10059C00051BD3E51B648094495003751BC9E51CEE
:1005AC0064027035E51AB4021D0515C3E51B6480A1
:1005BC00F8E51564809840021515C3E51564809420
:1005CC00FD400375157DE51AB4030E1515D3E5151D
:1005DC006480944950037515C9E51C700D7BFF7A36
:1005EC000879AE7D0A7F011208F2E51CB4010D7B7F
:1005FC00FF7A0879B97D0A7F011208F2E51CB40272
:10060C000D7BFF7A0879BC7D0A7F011208F2E51593
:10061C00FB3395E0FA750C037D0C7F0212070AE59B
:10062C001BFB3395E0FA750C037D047F0212070A5D
:10063C00E51BFD3395E0FCE4FF1208CE7F057E0040
:10064C001209F0E515FD3395E0FC7F011208CE7F11
:10065C00057E001209F0AC1BEC120237AB19AA187C
:10066C00A917A8161201B4600A40087BFF7A087912
:10067C00BF8019AC15EC120237AB19AA18A917A830
:10068C00161201B450107BFF7A0879C47D0D7F01DE
:10069C001208F20204DD7BFF7A0879C97D0D7F0117
:0606AC001208F20204DD59
:03000B000206B238
:1006B200C0E0C0F0C083C082C0D075D000C000C00E
:0D06C20001C002C003C004C005C006C0078F
:1006CF00758A66758CFC0514E51470020513C394C6
:1006DF0014E5139400400975130075140012077D7B
:1006EF00D007D006D005D004D003D002D001D0005F
:0B06FF00D0D0D082D083D0F0D0E03209
:1008CE008F088C098D0A120AAF7FA0120881120AB6
:1008DE0085AF08120881120A85AF0A120881120A22
:0408EE00850200037C
:020821008F083E
:10082300120AAF7FA0120881120A85AF081208814D
:10083300120A85120AAF7FA1120881120A851209D2
:0D084300158F097F01120A91120003AF0901
:010850002285
:1009F000EF1FAC0670011E4C600B007D027CC7DC53
:050A0000FEDDFC80EBAF
:010A050022CE
:100A4600C2AF1209517FCC1209A97F441209A9D25B
:020A5600AF22CD
:10085100C2AF1209517FCC1209A97FBE1209A91298
:10086100098C8F0812098CEFFEE508FFFDAC06EC40
:0F087100120232E4FBFA79807841120117D2AFFC
:010880002255
:090AAF00D2A0D2A1C2A0C2A12272
:07000300C2A0D2A1D2A0228D
:02088100AD07C1
:10088300E4FB74807E00A803088006CEA2E713CEA3
:1008930013D8F8FFEDF582EF558224FF92A0D2A181
:0608A300C2A10BBB08DC42
:0108A900222C
:10091500E4FFD2A0FED2A130A00D7480A806088005
:0D09250002C313D8FC4207C2A10EBE08E8B1
:0109320022A2
:0A0A9100EF24FF92A0D2A1C2A1221F
:0B0A8500D2A0D2A1A2A0E433FFC2A1C6
:010A90002243
:060A6A00C2A58F80D2A797
:080A70007F027EEFDEFEDFFCD9
:010A7800225B
:0A0A9B00C2A6120A6AC2A7020A707E
:10093300CFCDCFCECCCE12032B7C007D0A12032B5E
:04094300ED2430FF70
:0A094700D2A6120A6AC2A7020A70C3
:100A0600AE07BE0104ED148006BE0209ED243F4484
:060A160080FF120A9B2282
:100A32007F38120A9B7F0C120A9B7F06120A9B7F49
:040A420001020A9B08
:0A0AA500AC03120A06AF0402094771
:0608F2008B088A09890A47
:1008F800120A06E4FDAB08AA09A90A8D82758300CD
:0C0908001202ECFF60061209470D80E9A6
:0109140022C0
:0C07EE007F0AEA24FFFDE434FFFC7E00DB
:0807FA008E0F8F108C118D127F
:100802007F017E00E4FBEBC39512E5116480F8746E
:0E0812008098500AAC0FAD101203190B80E84D
:0108200022B5
:04096F008A0A8B0B5A
:10097300120A06AA0CEAD39400400D1207EEAC0A41
:08098300AD0B1209331A80EDDF
:01098B002249
:10070A00120A06C3EA64809480400B7F2B120947C1
:10071A008A0D8B0E800E7F2D120947C3E49BF50EBE
:10072A00E49AF50DAA0CEAD39400400D1207EEAC38
:09073A000DAD0E1209331A80ED19
:010743002293
:040744008A1F8B205D
:10074800120A06AA21EAD3940040297F101207F062
:10075800AC1FAD20CFCDCFCECCCE12032BEF540F94
:10076800FEC3940AEE5004243080022437FF120995
:04077800471A80D1CB
:01077C00225A
:0407B6008A248B25E1
:1007BA00120A06AA26EAD394004028EA24FFFDE496
:1007CA0034FFFC7F027E001207FAAC24AD25CFCDA0
:1007DA00CFCECCCE12032BEF54012430FF1209479F
:0307EA001A80D2A0
:0107ED0022E9
:10095100D2B7C2B77FE3DFFED2B77F1BDFFEA2B7FC
:0D096100E433FE7F067D6BDDFEDFFCAF069C
:01096E002266
:100A5800C2B77E04DEFEEF24FF92B77E19DEFED217
:010A6800B7D6
:010A6900226A
:1009C200C2B7000000D2B77F03DFFEA2B7E433FE56
:0609D2007F18DFFEAF06F6
:0109D80022FC
:0209A900AD0798
:1009AB00E4FC7401A804088002C333D8FC5DFF1279
:0609BB000A580CBC08EC18
:0109C1002213
:10098C00E4FDFC1209C2EF600D7401A8040880029A
:0C099C00C333D8FC42050CBC08E9AF05D1
:0109A800222C
:050AB800AF29E4F5295F
:010ABD002216
:100A1C00E4FF20B1010F20B0027F0220B2027F035D
:050A2C0020B3027F046D
:010A310022A2
:10077D00852728120A1C8F27E528B40107E5277065
:10078D0003752901E528B40207E5277003752902D1
:10079D00E528B40307E5277003752903E528B4049C
:0807AD0007E52770037529041C
:0107B5002221
:1009D9005389F0438901758A66758CFCC28DD28C66
:0709E900D2A9D2AFC2B9226E
:10000E00EC4D6011E8497017ED33EC3304600DE4EC
:10001E00FCFFFEFD22E933E8330470F80202D7122A
:10002E0002A258046009E4CC24815006285009022B
:10003E0002E12840030202DEC0E0EB4A7044B980C0
:10004E0006D0E0FB0202CDEF4E701CBD8008EBFF28
:10005E00EAFEE9FD80EBE98DF0A4FEE5F00200F783
:10006E00E9CDF9EAFEEBFFEF89F0A4FCE5F0CE89CD
:10007E00F0A42EFFE435F0CD89F0A42DFEE435F08A
:10008E008067EF4E7005BD80D780C3EF8BF0A4ACB8
:10009E00F0EE8BF0A42CFCE435F0F8EF8AF0A42CF3
:1000AE00E5F038FCE433CB8DF0A42CFCE5F03BF806
:1000BE00EE8AF0A42CFCE5F038F8E433CF89F0A4F6
:1000CE002CFCE5F038CF3400CE89F0A42FFFE5F0FC
:1000DE003EFEE433C98DF0A42EFEE5F039CD8AF054
:1000EE00A42FFFE5F03EFEE43DFD33D0E0FB5007CC
:1000FE000BBB000F0202E1EC2CFCEF33FFEE33FEE4
:06010E00ED33FD0202B911
:100114000202E1EC5D046005E8590470030202D7B1
:100124001202A2580460F6EC4860F2EC7004FDFE82
:10013400FF22C860DB2481C85009C39860025006BE
:100144000202DE9850CAF582E9294B4A7005AB8257
:100154000202CD75F0007C1A7880C3EF9BEE9AED15
:1001640099400DC3EF9BFFEE9AFEED99FDE842F036
:10017400DC23ACF0D0E0FFD0E0FED0E0FDAB822089
:10018400E7101BEB60BAEC2CFCEF33FFEE33FEED13
:1001940033FD0202B9E803F830E705C0F075F0005A
:1001A400EF2FFFEE33FEED33FD40B830E7C280AAF7
:1001B40074F8CC6480CCC86480C8F58204604FC3F2
:1001C400EB9FF5F0EA9E42F0E99D42F0E89C45F091
:1001D400603C501DE5825FFFE582D313CB5BCBF41B
:1001E4002B5582FB50280ABA002409B90020088044
:1001F4001DE5825BFBE582D313CF5FCFF4C3132FDE
:100204005582FF50090EBE00050DBD00010CC3EB65
:100214009FF5F0EA9E42F0E99D42F0E89C45F060CB
:0902240007CC4820E701B3EC22ED
:10022D0075F020800E75F010800575F0087D007E4C
:10023D00007F003392D530D50312044EEC334010BD
:10024D00EF33FFEE33FEED33FDEC33FCD5F0ED2255
:0E025D00E5F0247EA2D513CC92E7CDCEFF2291
:10026B00EDD2E7CD33EC3392D524814006E4FFFE8B
:10027B00FDFC22FCE4CFCECDCC24E0501174FF80EA
:10028B00EDC3CC13CCCD13CDCE13CECF13CF047087
:07029B00F030D5DE02044E35
:1002A200E9D2E7C933E833F892D5EDD2E7CD33ECA2
:0702B20033FC5002B2D5221B
:1002B900EC30E7100FBF000C0EBE00080DBD0004A6
:1002C9000BEB6014A2D5EB13FCED92E7FD2274FF52
:1002D900FCFDFEFF22E480F8A2D574FF13FC7D80AB
:0302E900E480EFBF
:1002EC00BB010CE58229F582E5833AF583E02250C7
:1002FC0006E92582F8E622BBFE06E92582F8E22211
:0D030C00E58229F582E5833AF583E493222A
:10031900EF8DF0A4A8F0CF8CF0A428CE8DF0A42EF8
:02032900FE22B2
:10032B00BC000BBE0029EF8DF084FFADF022E4CCB6
:10033B00F875F008EF2FFFEE33FEEC33FCEE9DEC7F
:10034B00984005FCEE9DFE0FD5F0E9E4CEFD22EDC5
:10035B00F8F5F0EE8420D21CFEADF075F008EF2F0F
:10036B00FFED33FD4007985006D5F0F222C398FD00
:05037B000FD5F0EA229D
:1003800075F008758200EF2FFFEE33FECD33CDCC34
:1003900033CCC58233C5829BED9AEC99E5829840B7
:1003A0000CF582EE9BFEED9AFDEC99FC0FD5F0D694
:1003B000E4CEFBE4CDFAE4CCF9A88222B800C1B9BE
:1003C0000059BA002DEC8BF084CFCECDFCE5F0CBFC
:1003D000F97818EF2FFFEE33FEED33FDEC33FCEB35
:1003E00033FB10D703994004EB99FB0FD8E5E4F9F0
:1003F000FA227818EF2FFFEE33FEED33FDEC33FCDD
:10040000C933C910D7059BE99A4007EC9BFCE99AD0
:10041000F90FD8E0E4C9FAE4CCFB2275F010EF2F15
:10042000FFEE33FEED33FDCC33CCC833C810D70715
:100430009BEC9AE899400AED9BFDEC9AFCE899F850
:0E0440000FD5F0DAE4CDFBE4CCFAE4C8F922E3
:0E044E00C3E49FFFE49EFEE49DFDE49CFC22BF
:00000001FF
